Data Input: 
tcpdump: listening on eth0, link-type EN10MB (Ethernet), 23:11:10.370321 IP 
(tos 0x20, ttl  48, id 34859, offset 0, flags [none], length: 84) 
69.254.213.43 > 72.21.34.42: icmp 64: echo request seq 0

        0x0000:  4520 0054 882b 0000 3001 7cf5 45fe d52b  E..T.+..0.|.E..+
        0x0010:  4815 222a 0800 3530 272a 0000 25ff d744  H."*..50'*..%..D
        0x0020:  ae5e 0500 0809 0a0b 0c0d 0e0f 1011 1213  .^..............
        0x0030:  1415 1617 1819 1a1b 1c1d 1e1f 2021 2223  .............!"#
        0x0040:  2425 2627 2829 2a2b 2c2d 2e2f 3031 3233  $%&'()*+,-./0123
        0x0050:  3435 3637                                4567
23:11:10.370344 IP (tos 0x20, ttl  64, id 35612, offset 0, flags [none], 
length: 84) 72.21.34.42 > 69.254.213.43: icmp 64: echo reply seq 0
        0x0000:  4520 0054 8b1c 0000 4001 6a04 4815 222a  E..T....@.j.H."*
        0x0010:  45fe d52b 0000 3d30 272a 0000 25ff d744  E..+..=0'*..%..D
        0x0020:  ae5e 0500 0809 0a0b 0c0d 0e0f 1011 1213  .^..............
        0x0030:  1415 1617 1819 1a1b 1c1d 1e1f 2021 2223  .............!"#
        0x0040:  2425 2627 2829 2a2b 2c2d 2e2f 3031 3233  $%&'()*+,-./0123
        0x0050:  3435 3637                                4567
2 packets captured
2 packets received by filter
0 packets dropped by kernel


Extraction:
length,flag,offset,id,ttl,tos,time,srcip,tarip
84,None,0,34859,48,0x20,23:11:10.370321,69.254.213.43,72.21.34.42
84,None,0,35612,64,0x20,456723:11:10.370344,72.21.34.42,69.254.213.43



Transformation:
Merge column 7 and 8 with delimiter '>'
length,flag,offset,id,ttl,tos,time,srcip > tarip
84,None,0,34859,48,0x20,23:11:10.370321,69.254.213.43 > 72.21.34.42
84,None,0,35612,64,0x20,456723:11:10.370344,72.21.34.42 > 69.254.213.43



Fold column 2,3,4
length,flag,tos,time,srcip > tarip,New column with name undefined
84,None,0x20,23:11:10.370321,69.254.213.43 > 72.21.34.42,0
84,None,0x20,23:11:10.370321,69.254.213.43 > 72.21.34.42,34859
84,None,0x20,23:11:10.370321,69.254.213.43 > 72.21.34.42,48
84,None,0x20,456723:11:10.370344,72.21.34.42 > 69.254.213.43,0
84,None,0x20,456723:11:10.370344,72.21.34.42 > 69.254.213.43,35612
84,None,0x20,456723:11:10.370344,72.21.34.42 > 69.254.213.43,64



Final output:
length,flag,tos,time,srcip > tarip,New column with name undefined
84,None,0x20,23:11:10.370321,69.254.213.43 > 72.21.34.42,0
84,None,0x20,23:11:10.370321,69.254.213.43 > 72.21.34.42,34859
84,None,0x20,23:11:10.370321,69.254.213.43 > 72.21.34.42,48
84,None,0x20,456723:11:10.370344,72.21.34.42 > 69.254.213.43,0
84,None,0x20,456723:11:10.370344,72.21.34.42 > 69.254.213.43,35612
84,None,0x20,456723:11:10.370344,72.21.34.42 > 69.254.213.43,64



